:10000000DC1E0400000000000000000000000000F2
:1000100000000000000000000000000000000000E0
:100020000000000000000000781F00000000000039
:1000300000000000FA1F00000000000000000000A7
:100040000000000000000000000000001821000077
:1000500000000000000000000000000000000000A0
:1000600000000000000000002E2000000000000042
:100070000000000000000000000000000000000080
:1000800000000000E620000000000000000000006A
:100090000000000000000000000000000000000060
:1000A0000000000000000000000000000000000050
:1000B0000000000000000000000000000000000040
:1000C0000000000000000000000000000000000030
:1000D0000000000000000000000000000000000020
:1000E0000000000000000000000000000000000010
:1000F0000000000000000000000000000000000000
:1001000000000000000000000000000000000000EF
:1001100000000000000000000000000000000000DF
:1001200000000000000000000000000000000000CF
:1001300000000000000000000000000000000000BF
:1001400000000000000000000000000000000000AF
:10015000000000000000000000000000000000009F
:10016000000000000000000000000000000000008F
:10017000000000000000000000000000000000007F
:10018000000000000000000000000000000000006F
:10019000000000000000000000000000000000005F
:1001A000000000000000000000000000000000004F
:1001B000000000000000000000000000000000003F
:1001C000000000000000000000000000000000002F
:1001D000000000000000000000000000000000001F
:1001E000000000000000000000000000000000000F
:1001F00000000000000000000000000000000000FF
:103DB8002F8D2000F0FF200020A0B7000000200079
:103DC80034A0B700400020004420B700762302004A
:103DD800000000008A1F78008B1F78008C1F780075
:103DE800F0FF2F00A8A2B700000C2000C6A2B70061
:103DF800CC22EF0010002000D2A2B700B8FE0700C6
:103E08001AC0B300F0FD0700CAC0B300EEFD0700FA
:103E18000A5822000B002000E6FE07006800200078
:103E2800676121000E20ED00FEFF3A001020ED0032
:103E3800FCFF3A0072FE07000020EF0010428800E5
:103E4800F0FF2F00204288001AC0B300DEFD0700F3
:103E58004C8320002B0020001A0020002AFE0700B7
:103E680068062000B79C2B000E20ED00FEFF3A00EC
:103E78001020ED00FCFF3A00000000001AC0B3005B
:103E8800D1FD07007C8220001B0020001A002000C2
:103E98001DFE0700AC8420001B0020002A00200023
:103EA80019FE0700608420001000E00001003200C5
:103EB800FCFF3700208420001000E00002003A00D8
:103EC8003EFE0700010037009AFF0700100020009F
:103ED80030428800D8FF37004F067800CF057800B9
:083EE8004F057800FFFF3700D1
:1038E8000000FA0000FF0700FFFE0700C602A9005B
:1038F800CDC2A900CDA2A900C662A900C642A900EE
:10390800C622A900CA02A900D1C2A900CA22A900D8
:10391800CA42A900CA62A900D1A2A900CA62A80025
:10392800D1A2A800E2FE0700DCFE0700E0FE0700C7
:10393800DAFE0700DEFE0700D8FE0700D1A2A900C4
:10394800DBFE0700D5FE0700D9FE0700CA62A90002
:10395800CA22A800D6FE0700D0FE0700CA22A90086
:10396800D1A2A800D2FE0700D1A2A900D0FE07006C
:10397800CAFE0700CEFE0700D1A2A800CCFE0700B1
:10398800C6FE0700D1A2A900C9FE0700CA22A800E6
:10399800CA42A800CA62A800D1A2A800C4FE0700B3
:1039A800BEFE0700008D20001000A0000080FA0075
:0439B8000000060005
:1034F000A78226000E20ED00FEFF3A00000000002B
:083500000000000000000600BD
:1034B8000000FA00CA02A8007BF70700CA02A900A8
:0C34C80079F707000080FA000000060001
:1012B000370020000E20ED00FEFF3A000000000085
:0412C0000000060024
:1034A400D77924000E20ED00FEFF3A000000000052
:0434B400000006000E
:1035D0000000FA008A80FB0002E0AE00CA22A900C7
:1035E00002E0AF00CA22A80002C0AE00CA42A90091
:1035F00002C0AF00CA42A80002A0AE00CA62A90081
:1036000002A0AF00CA62A8000280AE00D1A2A90049
:103610000280AF00D1A2A800008D20001000A600FB
:10362000D1C2A8001000A700D1C2A900A2FF0700C4
:103630000260AE00CA22A9000260AF00CA22A80040
:103640000240AE00CA42A9000240AF00CA42A80030
:103650000220AE00CA62A9000220AF00CA62A80020
:103660000200AE00D1A2A9000200AF00D1A2A800C2
:10367000008D20001000A600D1C2A8001000A700F5
:10368000D1C2A9008CFF0700008D20001000A60009
:103690000200370083FF0700010037007BFF0700AF
:0836A0000080FA0000000600A2
:10348C00670A20000E20ED00FEFF3A00000000004D
:08349C00000000000000060022
:1039BC000800FA00A0A6210060468800C0B72100CC
:1039CC0070468800F0FF2F0050468800F0FF2F0053
:1039DC00404688000C22EF00000028000EA2B70021
:1039EC003FFF0700823E200003002000EAFE070094
:1039FC000002BE00F1FE07004100DE006400400042
:103A0C00800078000A01BE008100E9000300350047
:103A1C000201D0008381D200FBFF3700020798001F
:103A2C0013079800849FBE000400BE000002EB0048
:103A3C0021F607004F02BE002007980031079800BE
:103A4C000400BE000E0190009E0190000002EB00ED
:103A5C00F5F3070080017800010278006000470050
:103A6C005001D100C080D300640047003008E10051
:103A7C002090E1000400310061804100E0004A0028
:103A8C000001BE00020037000301780084017800B9
:103A9C0061005100E0805900A01088000E22A9009E
:103AAC000DE2A8000F42A800B4FE0700B3FE070009
:083ABC000080FA000000060082
:0C36EC0000C429000100200000000600BE
:0835C800400020000000060095
:1035880068002000676121000E20ED00FEFF3A0070
:0C3598001020ED00FCFF3A0000000600CF
:1035A4000000FA00020AB800500088000200B800C7
:1035B40081004200032AB800810042000080FA0022
:0435C40000000600FD
:1012C4000000FA0002000700B60904000000000054
:1012D4000800E20002003A001000070000000600C7
:1012E400811F78000200E20002003D00600010004F
:1012F400E08018000600E20002003D0060011100D9
:10130400E0811900050007004F00E00002003B00E7
:1013140060001000E08018000000060002000700D2
:101324000480BE00000006006022B800060220000F
:101334000000D0008180D2000482D2008582D200D5
:101344000000A8000202520083825A0003003B00FE
:101354000202420083824A000000A1000603E90061
:10136400F3FF3A00000006000080FA0000000600C7
:0013740079
:100A34000000FA000200070068050400000000003E
:100A44000800E20002003A0010000700000006005F
:100A5400839F68000200E20002003D006000100075
:100A6400E08018000600E20002003D006001110071
:100A7400E0811900050007004F00E00002003B0080
:100A840060001000E0801800000006006022B8003A
:100A9400060220000000D0008180D2000482D2002F
:100AA4008582D2000000A8000202520083825A000C
:100AB40003003B000202420083824A000000A100BE
:100AC4000603E900F3FF3A00000006000080FA0084
:040AD4000000060018
:103808008220EF008220A9008600A9000000250080
:1038180080007800A0092000908068000000270040
:1038280080806000A009200090806800D104880092
:103838008E00A8008200A8008400A90050C0B30030
:10384800804078004009200090C06800E7C0600010
:103858004009200090C06800400920000148780015
:103868008C00A8008240A80086E0A90020C0B30010
:10387800804078004009200090C06800E7C06000E0
:103888004009200090C068004009200001487800E5
:103898008EE0A8008520A90000C5B300804078000C
:1038A8008009200090C0680000C7B30080C0600095
:1038B8008009200090C06800800920000148780035
:1038C800E020200090407800F0C3B30080C0600082
:1038D800E0202000014878008D20A80000000600A4
:0038E800E0
:103710000000FA008A1F78000A0037000A0820001B
:10372000110037000A0C20000F0037004A09200062
:103730000D0037004A0D20000B0037000A0820005A
:10374000090037006150E100F4FF32006250E100EF
:10375000F4FF32006350E100F4FF32006450E100F6
:10376000F4FF3200F5FF370061805500000045008E
:10377000000578000045780095FF0700008D2000C7
:103780001000A1000420EF00020046001004E00039
:1037900007003200020046008A1F780010457800BA
:1037A00071FF07004F0578000420EC00F6FF37009A
:1037B000008D20001000A0004F0578000080FA0066
:0437C00000000600FF
:103568000000FA00008D20001000A10016000700DE
:10357800008D20001000A0000080FA000000060066
:0035880043
:1037C4008A1F78008B1F78008C1F78001AC0B30002
:1037D4007EFF07008C8020001B0020001A002000C0
:1037E400CAFF0700008020001000E0000100320042
:1037F400FCFF37004F067800CF0578004F057800AE
:0438040000000600BA
:103D3C008A1F78008B1F78008C1F78001AC0B30084
:103D4C0020FE07004C8520001B0020001A002000DC
:103D5C006CFE0700008020001000E0000F00320015
:103D6C00404280006800E1000B00340060802000BD
:103D7C001000E000080032000020EF003040880006
:103D8C001AC0B3000FFE0700AC8120001B002000FE
:103D9C001A0020005BFE0700EEFF37004F0678008C
:0C3DAC00CF0578004F05780000000600ED
:1046EC0001802000C0352A0001000900B0187800B4
:1046FC00B058780061802000A0182A0060000900E2
:08470C00B0187800000006005F
:1041CC003400F8003600F800801F78002000200032
:1041DC000C000900B01F780028012000F7D42C0037
:1041EC000E20ED00FEFF3A001020ED00FCFF3A001F
:1041FC000000000086E0A9000020EF00304288009B
:10420C001000200000408800A00120000C000900D4
:10421C004F1078004F0078003600F9003400F90098
:04422C000040060048
:10405C003400F8003600F800801F780020002000A3
:10406C000C000900B01F78008A1F78008B1F7800A5
:10407C008C1F78008600A900608420001000E000EE
:10408C0045003A00208420001000E0002F003A0088
:10409C00F1FF2F00408420001008E10003003A00DB
:1040AC001100200040842000108840004084200033
:1040BC001000E0000B003A007FFE07002C8020006F
:1040CC00FB0020001A0020008EFD070011002000CC
:1040DC00408420001088400010002000C040880060
:1040EC001A003700204280006000E1001700340005
:1040FC00404280006200E10014003400B0408000B7
:10410C00A040880040428000904088000020EF00D2
:10411C00B04088000020EF00404288009B408000A7
:10412C00AA4080007EFE07000C8A2000EB002000D5
:10413C001A00200073FD07001100200040842000AD
:10414C001088400010002000C0408800208420000F
:10415C001000E00010003200608020001000E00031
:10416C000D003200B0408000A0408800404280002A
:10417C00904088004B428000BA40800068FE0700E7
:10418C000020EF00304088000020EF00B040880095
:10419C000020EF00404288004F067800CF057800E1
:1041AC004F057800A00120000C0009004F1078008A
:1041BC004F0078003600F9003400F900004006008A
:0041CC00F3
:103AC4000421EF000441A9000421A9000481A900F4
:103AD40004A1A90004C1A9008460A9000000240075
:103AE40080007800400920009080680000002700D2
:103AF400808060004009200090806800A104880054
:103B04008C60A8000021EF000071220002A1B70020
:103B140005E1A8000020EF00B04088000020EF007D
:083B2400404288000000060089
:103B2C000200FA008A1F78008B1F78008C1F780027
:103B3C00C2032000110009008205D8008000780023
:103B4C0001079800C00320000088B90000805500D0
:103B5C0080057800400620000050E10016003D0072
:103B6C006A50E1000A003D008B1F78008A1F780024
:103B7C0060352A00801F780030872000801F780075
:103B8C005EFE07006F00B100CF057800090037001A
:103B9C008B1F78008A1F780010362A00801F78004F
:103BAC0030872000801F780054FE07006F00B100A2
:103BBC00CF057800090037008B1F78008A1F78002A
:103BCC00F0362A00801F780030872000801F780094
:103BDC004AFE07006F00B100CF0578006A58E1007B
:103BEC0008003D008B1F780050362A00801F78009B
:103BFC0030862000801F780040FE07006F00B10067
:103C0C00070037008B1F780020372A00801F7800B0
:103C1C0030862000801F780038FE07006F00B1004E
:103C2C0060004700901F7800C0362A00801F780083
:103C3C0010862000801F780030FE07006F00B10056
:103C4C004408F80090362A00801F78007087200006
:103C5C00801F780029FE07006F00B100308720001C
:103C6C00801F780030862000801F7800108620008E
:103C7C00801F7800E0342A00801F7800B086200076
:103C8C00801F78001DFE0700AF00B100BA8620002F
:103C9C0082FE0700208420001000E00004003A009F
:103CAC007C8720001B0020002A00200095FE0700C6
:103CBC001C8620004B0020002A00200091FE0700EB
:103CCC009C8720005B0020002A0020008DFE07004E
:103CDC003C8620007B0020002A00200089FE070083
:103CEC009C8620009B0020002A00200085FE0700F7
:103CFC003C872000BB0020002A00200081FE07002A
:103D0C00208420001000E00004003200DC89200038
:103D1C00FB0020001A0020007AFE07004F067800F6
:103D2C00CF0578004F0578000080FA0000000600EF
:003D3C0087
:103508000200FA008A1F78008B1F78008C1F780051
:103518004EB99700E00047006A005700800878001D
:10352800821F780001067800BEBD9700020578006A
:103538008EF707004F017800800178008000410075
:103548000020EF0080487800030078004F067800DC
:10355800CF0578004F0578000080FA0000000600CB
:0035680063
:101374002800FA0000002000500F98008B0078002D
:10138400618045008005780011407800204F980066
:101394000040E20039083200AE48900050C2B30069
:1013A400000CE100080032002E489000004D780047
:1013B4006100450000057800DE0890007A004700CF
:1013C40061884000EDFF37000020EF0060079800BF
:1013D4000020EF00700798001F003700FE00900007
:1013E4006E004700688870006180450080057800C1
:1013F4002E003700FE0090006E00470061887000E8
:10140400618045008005780028003700FE009000C8
:101414006E00470062887000618045008005780096
:10142400220037007E019000018020006E004700FA
:101434000108710061804500800578001B003700B9
:10144400FE0090006E0047006488700061804500D3
:1014540080057800150037009B407800D0C2B300A7
:10146400000CE100DDFF32009B40780000C2B300B5
:10147400000CE100DFFF32009B407800B0C2B300F3
:10148400000CE100E1FF32009B40780030C2B30061
:10149400000CE100E3FF32009B40780000C3B3007E
:1014A400000CE100E6FF320001003700CAFF3700FC
:1014B4006E0047001010A60004003700E2FF2F0062
:1014C400EE0047006E004700110861006E004700FF
:1014D4001030A60004003700B2FF2F00EE004700D2
:1014E4006E004700110861001B4078000080FB007B
:1014F4008A1F7800004578005FFF07004F057800D9
:101504000000E200160032000020EF00600798009F
:10151400EE009000A00020000089B9001B40780074
:101524000080FB0000024100010320006C00470022
:101534000108520061804500800578001B40780056
:101544000080FB008A1F7800004578004AFF0700EE
:101554004F0578000000E200EDFF3A000D0037006F
:101564009B407800A0C2B300000CE10009003A00DF
:101574008C0078001C00780000A0ED00000E7800BC
:101584001100780010007800600798006180450021
:10159400800578009B407800E0C2B300000CE100B5
:1015A40027003A0061804500800578009B40780060
:1015B400A0C2B300000CE1000A003A008C007800DD
:1015C4001C00780000A0ED00000E780011007800E7
:1015D400100078004007980061804500800578007D
:1015E400160037000020EF00400798001B407800E9
:1015F4000080FB008A1F7800004578001EFF07006A
:101604004F0578000000E2000C003200CE0090008C
:10161400A00020000089B9001B4078000080FB0076
:101624000002410001032000680047000108520045
:101634006180450080057800ECFF37000600370024
:101644000020EF00400798007E0190000100210077
:101654006E004700010871008B007800618045002E
:101664008005780011407800204F980097003700DB
:101674005E08900082073700FE0090006E0047006D
:1016840070887000F4FF37007E0190000140200054
:101694006E00470001087100CC00370002022000F0
:1016A400EE0047006E004700110871007E019000B3
:1016B400011020006E00470001087100C3003700CC
:1016C4007E019000012020006E0047000108710097
:1016D400BE00370002042000EE0047006E00470001
:1016E40011087100B9003700B80037000202200069
:1016F400EE0047006E004700110871000208200048
:10170400EE0047006E00470011087100AF0037007B
:101714008C0078001C00780000A0ED00000E78001A
:101724001100780010007800300F98006000E1008C
:1017340002003A00E08A2000300F98000020EF00F9
:10174400400F9800BE0890007800470010804000C9
:101754001004E000040032004E0890000020EC0069
:10176400400F9800F7FF3700680047001000E000C2
:1017740006003200CE009000780047001008E10017
:10178400020031004E009000400F9800EE009000DF
:10179400780047001008E100050036006E01900053
:1017A400F80047006C0047001108510002003700A0
:1017B4000020EF00600798006E0047001030A7007B
:1017C4000E0037006E019000EE0090006C004700A0
:1017D400618850000400E2000800320000C2B30037
:1017E400004D78006100450000057800DE08900097
:1017F4007A00470061884000F2FF3700CE0890006D
:101804004E0890000020ED00400F98000200E20016
:101814000B0032003E089000104D78006100450036
:10182400000578003E0890000020EC00300F98007E
:10183400DE0890007A00470061884000EFFF37001F
:101844006E0047001030A6000E0037006E019000B5
:10185400EE0090006C004700618850000400E20034
:101864000800320000C2B300004D7800610045005A
:1018740000057800DE0890007A0047006188400087
:10188400F2FF3700BDFE37008C0078001C007800A2
:1018940000A0ED00000E7800110078001000780020
:1018A400204F98006A004700300F98001000200075
:1018B400400F9800ACFF3700020C2000EE004700F8
:1018C4006E00470011087100400037002E48900058
:1018D4006004E10066FF3200AE489000C0C6B30069
:1018E400000CE10064FF3200AE489000C0C4B300B5
:1018F400000CE10060FF3200AE48900060C6B30007
:10190400000CE10060FF3200AE48900050C4B30008
:10191400000CE10061FF3200AE48900050C6B300F5
:10192400000CE10061FF3200AE48900070C6B300C5
:10193400000CE10062FF3200AE489000F0C6B30034
:10194400000CE10063FF3200AE48900040C6B300D3
:10195400000CE10064FF3200AE48900090C6B30072
:10196400000CE10060FF3200AE48900000C7B300F5
:10197400000CE1005DFF3200AE48900080C5B3006A
:10198400000CE10059FF3200AE48900080C7B3005C
:10199400000CE10059FF3200AE48900030C7B3009C
:1019A400000CE1005AFF3200AE48900030C6B3008C
:1019B400000CE100B4FF3200AE48900050C7B30001
:1019C400000CE100BCFF3200B6FF3700FE009000BF
:1019D4000070200000806000980432006E00470010
:1019E40010C0A600020037006000200040079800E5
:1019F4008C0078001C00780064005000000E780011
:101A0400110178001200BE00000F9800110F980019
:101A14008C1F78008A9FBE000420EF000620EF0090
:101A240070FD07000000E0000060EF0001003D00D1
:101A34000060EC004F05BE004F0678000040E20055
:101A44000A0032008E0990001E0A90000100200056
:101A540002002800700047000198690002106A0023
:101A6400FE0090006E004700638870000020EF00C5
:101A7400200F98008C1F78008A9FBE000E089000EB
:101A84009E0890000420EF000620EF0055FD07009B
:101A94000000E0000060EF00010032000060EC0094
:101AA4004F05BE004F0678000040E20049003200B6
:101AB400F401470070004700B0007800200178006E
:101AC400C710DE000001EB00F00F200080806000F2
:101AD400E0072000008050008009780011002000F9
:101AE4007400470010881000AE08900030002000F9
:101AF400008AB900240F9800A200200011000900F8
:101B04000202D800200F98006000E10003003D00AD
:101B14001100200074004700108810002E08900067
:101B2400600010008C1F78008A9FBE00004578007A
:101B340029FC07000E0990009E0990009EFA0700F8
:101B4400300F9800410F98000200200003F8230092
:101B54003E089000CE08900022FD07000000E0003F
:101B64000060EF0001003D000060EC004F05BE0086
:101B74004F0678000040E20004003200110020000B
:101B84007400470010881000120037008C1F780082
:101B94008A9FBE0002002000031224003E08900029
:101BA400CE089000AFFD07000000E0000060EF00E9
:101BB400010035000060EC004F05BE004F067800C0
:101BC4000040E200030032001100200074004700CE
:101BD400108840002E0890006000E10003003C00E3
:101BE40010C0B300204F9800020037004E50900000
:101BF400204F98006E0047001080A7000E003700A9
:101C04006E0047001090A6000A003700C1FF2F00A5
:101C1400740047001008E10005003C00AE08900085
:101C2400680047001008E10001003D000100370092
:101C34000100370004023700680047001000E0008C
:101C4400060032006E0047001090A6000300370023
:101C5400CE00900068004700618850004E0090005C
:101C64006800E1000300360080C0B300204F9800F4
:101C7400020037000E489000204F98008C1F780017
:101C84008A9FBE000E0890009E0890000420EF007A
:101C94000620EF00D3FC07000000E0000060EF0026
:101CA400010032000060EC004F05BE004F067800D2
:101CB4000040E200740032008C1F78008A9FBE004E
:101CC4004E559000C4FB07000001BE000E089000B2
:101CD4009E089000C8FC0700000F9800110F9800A0
:101CE4006A0047001080FB00600010000045780087
:101CF400B9FB07000001BE000E0890009E0890008A
:101D0400BDFC07002017980031179800000F9800B9
:101D1400110F980010FB0700B4FA0700600F980039
:101D2400710F98006E099000FE0990002E1090002B
:101D3400BE109000A3FB07000200200003F0230064
:101D440048FD07000000E0000060EF0001003500DE
:101D54000060EC004F05BE004F0678000040E20032
:101D64000B0032000E0990009E0990000000200034
:101D740001F023008C1F78008A9FBE001FF9070022
:101D84004F05BE004F067800000F9800110F980011
:101D94008C1F78008A9FBE000E0890009E08900059
:101DA400EDFA07004F05BE004F0678006A014700B0
:101DB4001281FB000420EC00C211DD00422E2A0037
:101DC400030241001401BE000200E1000388E100A7
:101DD4000F0039008C1F78008A9FBE000E08900007
:101DE4009E089000D2CC2C00C3DC2300F2F907003B
:101DF4004F05BE004F067800000F9800110F9800A1
:101E04001100200074004700108840001E003700B5
:101E14008C1F78008A9FBE000E0890009E089000D8
:101E2400CDFA07004F05BE004F0678006A0147004F
:101E34001281FB00C211DD00422E2A000302410080
:101E44001401BE000200E1000388E1000E0031002D
:101E54008C1F78008A9FBE000E0890009E08900098
:101E64000200200003122400D3F907004F05BE002E
:101E74004F067800000F9800110F98001100200001
:101E840074004700108810006E0047001090A600F0
:101E9400490037006E00470010B0A7004600370025
:101EA4004E0090006A00E10002003400A00020000F
:101EB400400798008C1F78008A9FBE000E0890008F
:101EC4009E089000A4FA07004F05BE004F06780054
:101ED400300F9800410F9800F60047003100780059
:101EE400210070001D0032008C1F78008A9FBE0004
:101EF400A2002000030020003E089000CE089000BD
:101F04000002EB00EEFC07004F05BE004F06780010
:101F14006000E1006088E10010003A00CE0090000B
:101F240068004700618850008C1F78008A9FBE00BB
:101F3400A2002000030020003E089000CE0890007C
:101F44000002EB00BAFA07004F05BE004F06780006
:101F5400300F9800410F9800DFFF37006A004700F8
:101F64009080FB00680047001008E1001200340074
:101F74006A0047009080FB00680047001080500012
:101F84008C1F78008A9FBE000045780012FB070072
:101F94000001BE000E0890009E08900016FC070089
:101FA4004F05BE004F067800000F9800110F9800EF
:101FB4000E489000204F98004E00900065014000AC
:101FC400EC0047006C00470011081100680047004E
:101FD4001000E00004003A006E00470010B0A700B3
:101FE4000100370003003700EE0090006C0047004A
:101FF400618850007E009000630060000000E200F1
:1020040003003200EE0090006C004700618850002D
:102014006E0047001020A6002C0037006E00470019
:102024001010A600100037006E0047001000A60034
:1020340003003700D0C2B300004798000200370005
:10204400B0C2B300004798000E409000004D7800E5
:102054006100450000057800DE0890007A00470022
:10206400618840000A0037006E0047001000A60097
:102074000700370000C2B300004D7800610045003E
:1020840000057800DE0890007A004700618840006F
:102094006E0090006000E1000B00340000C3B30048
:1020A400004D78006100450000057800DE089000CE
:1020B4007A00470061884000EE0090006C00470001
:1020C40061885000F2FF37002E0037006E00470091
:1020D4001030A7000E0037006E0090006000E10091
:1020E4000B00340000C2B300004D780061004500CD
:1020F40000057800DE0890007A00470061884000FF
:10210400EE0090006C00470061885000F2FF370039
:102114006E0047001010A600100037006E00470044
:102124001000A60003003700D0C2B3001047980087
:1021340002003700B0C2B300104798001E40900060
:10214400004D78006100450000057800DE0890002D
:102154007A004700618840000A0037006E0047009B
:102164001000A6000700370000C2B300004D78003D
:102174006100450000057800DE0890007A00470001
:10218400618840008C1F78008A9FBE000E08900072
:102194009E089000F0F90700300F9800410F980056
:1021A4006A0047001080FB00C200DD00402E2A00B8
:1021B400810040001101BE003E089000CE0890004E
:1021C4000002EB001AFA07004F05BE004F06780024
:1021D400020320000300200002004000004D7800AC
:1021E4006100450000057800DE0890007A00470091
:1021F40061884000680047001000E00004003A00D5
:102204006E00470010B0A700010037003C00370003
:10221400E0C2B300004D780061004500000578007D
:10222400DE0890007A004700618840006A00470099
:102234001081FB00E8004700680047001108110006
:102244006A0047001004E0001F00320011C0B30010
:102254006A00470010C810006A0047001080FB00A5
:10226400C200DD00402E2A00810040001101BE00A2
:102274008C1F78008A9FBE003E089000CE08900014
:102284000002EB00EAF90700A2002000030020008E
:102294000002EB000AFC07004F05BE004F06780061
:1022A400020320000300200000004100004D7800DC
:1022B4006100450000057800DE0890007A004700C0
:1022C40061884000DEFF3700680047001000E0002E
:1022D4000B00320000C3B300004D780061004500DC
:1022E40000057800DE0890007A004700618840000D
:1022F400CE0090006800470061885000F2FF37006C
:102304006E0047001050A6000800370050C4B30008
:10231400004D78006100450000057800DE0890005B
:102324007A004700618840000700370050C6B300B8
:10233400004D78006100450000057800DE0890003B
:102344007A004700618840002E0890006000E10098
:102354000B003D00AE089000740047006088100038
:10236400D0C2B300004D780061004500000578003C
:10237400DE0890007A0047006188400007003700BB
:10238400B0C2B300004D780061004500000578003C
:10239400DE0890007A004700618840002E08900013
:1023A400A2002000110009000200D800800078007B
:1023B4000003200000804000004D780061004500CB
:1023C40000057800DE0890007A004700618840002C
:1023D4002E089000A2002000110009000200D8007D
:1023E4000003200000804000004D7800610045009B
:1023F40000057800DE0890007A00470061884000FC
:102404006E0047001030A6000E0037006E009000EA
:102414006000E1000B00340000C2B300004D7800FE
:102424006100450000057800DE0890007A0047004E
:10243400618840006E0090000020ED006007980065
:10244400F5FF3A00CDFB37006E0047001090A60060
:10245400680037002E0890006000E10005003D0090
:102464002E08900061015000E80047006800470012
:10247400110811008C1F78008A9FBE000E0890007E
:102484009E08900034F907004F05BE004F067800FF
:10249400300F9800410F980010C0B300204F9800EF
:1024A4002E4890006A04E100100032006A004700E0
:1024B4001080FB00C200DD00402E2A008101400094
:1024C400B300780023017800760047003008E1006B
:1024D4002090E100010036000400370011C0B30071
:1024E4006A00470010C84000EDFF37006A0047004B
:1024F4009080FB00680047001080100020179800AF
:10250400400798008C1F78008A9FBE003E08900008
:10251400CE089000B5F80700600F9800710F98007E
:102524000E0890009E0890006E099000FE0990002D
:10253400A4F907002E119000201798003117980075
:1025440002457800A4F907002E119000BE119000F6
:1025540019F807000200200003F0230027F7070002
:10256400FDF807004F05BE004F067800300F9800B5
:10257400410F9800680047001000E0001D00320081
:102584008C1F78008A9FBE00A20020000300200058
:102594003E089000CE0890000002EB0048FB0700C4
:1025A4004F05BE004F0678006000E1006088E1003E
:1025B40010003A008C1F78008A9FBE00A200200001
:1025C400030020003E089000CE0890000002EB00BB
:1025D40017F907004F05BE004F067800300F98002A
:1025E400410F9800CE0090006800470061885000B9
:1025F400E0FF37004E0090006C00E1000B003C004F
:102604008C1F78008A9FBE000E4D900017FA0700B9
:102614000E0990009E099000F8F607004F05BE00D1
:102624004F067800000F9800110F98008C1F780057
:102634008A9FBE000E0890009E0890000420EF00C0
:102644000620EF0067FA07000000E0000060EF00DA
:10265400010032000060EC004F05BE004F06780018
:102664000040E200390032008C1F78008A9FBE00CF
:102674000E0890009E089000B7F807004F05BE00B2
:102684004F0678006000E1006088E1002F003A0006
:102694002E0890006100E1002C0034008C1F7800AB
:1026A4008A9FBE004E5590004BF907000001BE0002
:1026B4000E0890009E0890004FFA0700F2052700CC
:1026C4009308240047FA07000000E0000060EF00D0
:1026D40001003D000060EC004F05BE004F0678008D
:1026E4000040E20004003200910020007400470022
:1026F4001088100003003700810020007400470098
:10270400108810008C1F78008A9FBE004E559000E0
:1027140031F907000001BE000E0890009E089000E9
:1027240035FA07008CF807004F05BE004F06780005
:10273400300F9800410F98000020EF000220EF00B6
:10274400000F9800110F9800170037008C1F7800B5
:102754008A9FBE000E0890009E0890007EF8070035
:10276400300F9800410F98003E089000CE0890006A
:102774001EF80700600F9800710F98000E08900073
:102784009E0890006E099000FE0990000DF9070064
:102794004F05BE004F067800000F9800110F9800F7
:1027A4000020EF00200F980010C0B300204F9800C5
:1027B4002E4890006A04E100100032006A004700CD
:1027C4001080FB00C200DD00402E2A008101400081
:1027D400B300780023017800760047003008E10058
:1027E4002090E100010036000400370011C0B3005E
:1027F4006A00470010C84000EDFF37006A00470038
:102804009080FB00680047009080400074004700FF
:1028140010814000EC0047006C00470011081100D3
:102824006E00470010B0A70004003700680047009E
:102834001000E00001003A0003003700EE009000B1
:102844006C004700618850007E00900063006000C7
:102854000000E20003003200EE0090006C0047002C
:10286400618850006E0047001020A6002C0037003D
:102874006E0047001010A600100037006E004700DD
:102884001000A60003003700D0C2B3002047980010
:1028940002003700B0C2B300204798002E409000D9
:1028A400004D78006100450000057800DE089000C6
:1028B4007A004700618840000A0037006E00470034
:1028C4001000A6000700370000C2B300004D7800D6
:1028D4006100450000057800DE0890007A0047009A
:1028E400618840006E0090006000E1000B0034003D
:1028F40000C3B300004D7800610045000005780076
:10290400DE0890007A00470061884000EE009000E5
:102914006C00470061885000F2FF37002E0037003A
:102924006E0047001030A7000E0037006E009000C4
:102934006000E1000B00340000C2B300004D7800D9
:102944006100450000057800DE0890007A00470029
:1029540061884000EE0090006C00470061885000E0
:10296400F2FF37006E0047001010A6001000370079
:102974006E0047001000A60003003700D0C2B30069
:102984003047980002003700B0C2B30030479800C7
:102994003E409000004D780061004500000578003D
:1029A400DE0890007A004700618840000A00370082
:1029B4006E0047001000A6000700370000C2B300F5
:1029C400004D78006100450000057800DE089000A5
:1029D4007A004700618840002E49900011C0B3007E
:1029E4006A00470010C810000440E2001C003200D6
:1029F4006A0047001080FB00C200DD00402E2A0060
:102A0400810040001101BE008C1F78008A9FBE0027
:102A14003E089000CE0890000002EB0004F8070086
:102A2400A2002000030020000002EB0024FA0700AB
:102A34004F05BE004F06780002032000030020006B
:102A440000004100004D7800610045000005780059
:102A5400DE0890007A00470061884000DEFF3700FE
:102A64002E0890006000E1000B00340000C3B300A6
:102A7400004D78006100450000057800DE089000F4
:102A84007A0047006188400011002000740047006C
:102A940010881000F2FF37004E0090006800E1003B
:102AA4000300340080C0B300204F980002003700B8
:102AB4000E489000204F98006A0047001081FB00E8
:102AC400E800470068004700110811006A00470049
:102AD4001004E00004003A006E00470010B0A700A4
:102AE4000100370007003700E0C2B300004D780052
:102AF4006100450000057800DE0890007A00470078
:102B0400618840008C1F78008A9FBE002E4D900083
:102B140031F807000E0990009E099000A6F6070000
:102B2400ECF707004F05BE004F067800300F980001
:102B3400410F98006A0047001004E0001F003200B3
:102B440011C0B3006A00470010C810006A004700B3
:102B54001080FB00C200DD00402E2A0081004000EE
:102B64001101BE008C1F78008A9FBE003E089000B1
:102B7400CE0890000002EB00ADF70700A200200091
:102B8400030020000002EB00CDF907004F05BE0052
:102B94004F067800020320000300200000004100DB
:102BA400004D78006100450000057800DE089000C3
:102BB4007A00470061884000DEFF37006800470064
:102BC4001000E0000B00320000C3B300004D780099
:102BD4006100450000057800DE0890007A00470097
:102BE40061884000CE009000680047006188500072
:102BF400F2FF37006E0047001030A6000E003700C9
:102C04006E0090006000E1000B00340000C2B300CD
:102C1400004D78006100450000057800DE08900052
:102C24007A004700618840006E0090000020ED00AB
:102C340060079800F5FF3A00D0F93700010C200036
:102C44006E004700108060006000E10024003A003C
:102C54006E0047001040A600090037008C00780081
:102C64001C00780064005000000E78001101780008
:102C74001200BE00300F9800410F98000900370081
:102C84008C0078001C00780000A0ED00000E780095
:102C94001100780010007800CF80DE00300F98001B
:102CA400410F98003E089000CE0890006000E100BB
:102CB4006088E10009003D00FE0090006E004700BE
:102CC400638870003E089000CE08900060001000F9
:102CD400E0801800300F9800410F9800150037006D
:102CE4006E0047001040A600090037008C007800F1
:102CF4001C00780064005000000E78001101780078
:102D04001200BE00300F9800410F980009003700F0
:102D14008C0078001C00780000A0ED00000E780004
:102D240011007800100078008000EB00300F98004C
:102D3400410F98004E0090006000E10008003A0046
:102D44003E089000CE0890006000E1006088E10039
:102D540003003A00CE0090006800470061884000FC
:102D6400010C20006E0047001080600000427800D3
:102D74004200370010C0B300204F98002E48900046
:102D84006A04E100100032006A0047001080FB0072
:102D9400C200DD00402E2A0081014000B30078000B
:102DA40023017800760047003008E1002090E1001C
:102DB4000100360004003700AE4890006A00470066
:102DC40061C84000EDFF37003700370010C0B30082
:102DD400204F98002E4890006804E1001000320053
:102DE4006A0047001080FB00C200DD00C0302A00EA
:102DF40081014000B3007800230178007600470089
:102E04003008E1002090E1000100360004003700A2
:102E1400AE4890006A00470061C84000EDFF3700EB
:102E24002100370010C0B300204F98002E489000B6
:102E34006C04E100100032006A0047001080FB00BF
:102E4400C200DD00402B2A0081014000B30078005D
:102E540023017800760047003008E1002090E1006B
:102E64000100360004003700AE4890006A004700B5
:102E740061C84000EDFF37000B0037006024E1001B
:102E8400BCFF320000CCB3000024E100B9FF3200E3
:102E940000C8B3000024E100CCFF320000C4B3003A
:102EA4000024E100DFFF32006A0047009080FB004D
:102EB400680047001008E10003003D000E48900040
:102EC400204F9800080037006A0047009080FB00FC
:102ED400680047001008E100030034006A0047005E
:102EE4001080FB00400798006C0047001000E000D1
:102EF400070032007E009000630060000000E200E2
:102F040003003200EE0090006C004700618850001E
:102F1400EE009000680047001008E100050034004E
:102F24006E019000E80047006C0047001108510052
:102F3400020037000020EF0060079800FE009000B8
:102F4400408C200080806000008420000008E100A4
:102F540007003A006C0047001000E0000300320054
:102F6400EE0090006C004700618850000F003700AD
:102F7400FE009000008C200080806000008820000B
:102F84000008E10009003A006E0090006200E100D0
:102F940004003400EE0090006C004700628850008A
:102FA400020037000020EF00600798006E00470021
:102FB4001020A600490037006E0047001010A6003C
:102FC400100037006E0047001000A6000300370011
:102FD400D0C2B3004047980002003700B0C2B3002B
:102FE400404798004E409000004D78006100450035
:102FF40000057800DE0890007A00470061884000F0
:10300400270037006E0047001000A60008003700B4
:1030140000C2B300004D780061004500000578004F
:10302400DE0890007A004700618840001C003700E9
:10303400FE009000008C200080806000008820004A
:103044000008E10016003A0000C3B300004D780008
:103054006100450000057800DE0890007A00470012
:10306400618840006E0047001050A600030037003E
:1030740080C5B300504798000200370080C7B300F2
:10308400504798005E409000004D78006100450074
:1030940000057800DE0890007A004700618840004F
:1030A4006C0047001000E0000B00320000C3B300C6
:1030B400004D78006100450000057800DE089000AE
:1030C4007A004700618840006E0090000020ED0007
:1030D40060079800F5FF3A00580037006C0047007D
:1030E4001000E0000E0032006E0047001030A70010
:1030F4000B00370000C2B300004D780061004500AA
:1031040000057800DE0890007A00470061884000DE
:103114006E0090000020ED0060079800F5FF3A0073
:103124006E0047001010A600100037006E00470024
:103134001000A60003003700D0C2B3006047980017
:1031440002003700B0C2B300604798006E409000A0
:10315400004D78006100450000057800DE0890000D
:103164007A004700618840000A0037006E0047007B
:103174001000A6000700370000C2B300004D78001D
:103184006100450000057800DE0890007A004700E1
:1031940061884000FE009000008C20008080600068
:1031A400008420000008E10008003A0000C3B300D6
:1031B400004D78006100450000057800DE089000AD
:1031C4007A004700618840001C003700FE00900030
:1031D400008C200080806000008820000008E1004E
:1031E40016003A0000C3B300004D780061004500AA
:1031F40000057800DE0890007A00470061884000EE
:103204006E0047001050A6000300370080C5B300CD
:10321400704798000200370080C7B30070479800D9
:103224007E409000004D7800610045000005780064
:10323400DE0890007A004700618840006A00470079
:103244009080FB00680047001008E10008003D0082
:1032540000C3B300004D780061004500000578000C
:10326400DE0890007A00470061884000F3FF3700D1
:103274004E019000CE009000680047006188500025
:103284000400E2006B003200010C20006E004700D5
:103294001080600040679800520037004E00900094
:1032A400C200DD00402E2A00810040001101BE0052
:1032B4008C1F78008A9FBE003E089000CE089000C4
:1032C4000002EB00DAF50700A20020000300200052
:1032D4000002EB00FAF707004F05BE004F06780026
:1032E40003C3B3006A0147000349400049003700A3
:1032F4006E0047001050A600140037004E009000E6
:10330400C200DD00C0302A00810040001101BE006F
:103314008C1F78008A9FBE003E089000CE08900063
:103324000002EB00C2F507004F05BE004F0678000F
:103334006F016000E0816000C0322A00820040001A
:1033440011407800204F9800130037004E00900081
:10335400C200DD00C0302A00810040001101BE001F
:103364008C1F78008A9FBE003E089000CE08900013
:103374000002EB00AEF507004F05BE004F067800D3
:103384006F016000E0816000D0332A0082004000B9
:1033940011407800204F98001E0037004E00900026
:1033A400C200DD00402B2A00810040001101BE0054
:1033B4008C1F78008A9FBE003E089000CE089000C3
:1033C4000002EB009AF507004F05BE004F06780097
:1033D4006701600001C3B3006A004700014841006F
:1033E4000C003700CE609000600CE100ABFF3200AF
:1033F40000CCB300000CE100A8FF320000C8B30009
:10340400000CE100BAFF320000C4B300000CE1007C
:10341400E2FF32002E489000004D78006100450024
:1034240000057800DE0890007A00470061884000BB
:103434008FFF37006E0047001030A6000E003700E3
:103444006E0090006000E1000B00340000C2B30085
:10345400004D78006100450000057800DE0890000A
:103464007A004700618840006E0090000020ED0063
:1034740060079800F5FF3A00C0F737005E08900037
:083484000080FA0000000600C0
:10127C000000FA0090C3B3000054E10005003E00EA
:10128C0000C3B3000054E1000200390010C0B300E9
:10129C00010037000020EF000080FB000080FA0006
:0412AC000000060038
:100BDC000400FA006054E10052003D000A00FB00E2
:100BEC00E000100001457800E0C6B300000CE10005
:100BFC002C0035000A00FB00420620001100090001
:100C0C000200D80072004000C200DD00C0242A009F
:100C1C00010140001200BE00000798001107980067
:100C2C000A00FB0042062000110009000200D80057
:100C3C0001007800A2002000110009000200D80079
:100C4C0069004000C200DD00C0242A0001024000FF
:100C5C001401BE000E0090009E0090008A1F7800C8
:100C6C0053FE07004F057800000798001107980005
:100C7C000A00FB00A2002000110009000200D800AD
:100C8C0001007800C200DD00C0242A0001024000EF
:100C9C001401BE000E0090009E00900044FE070060
:100CAC006E0037006A54E100180034000A00FB00A3
:100CBC00A2002000110009000200D80069004000C9
:100CCC00C200DD00C0242A00010140001200BE0059
:100CDC0000079800110798000A00FB00A2002000F2
:100CEC00110009000200D80001007800C200DD00EC
:100CFC00C0242A00010240001401BE000E00900026
:100D0C009E0090002AFE0700540037000A00FB00EA
:100D1C00C200DD00C0242A00010140001200BE0008
:100D2C004E003700E0C6B3000054E1002C00350043
:100D3C000A00FB0042062000110009000200D80046
:100D4C0072004000C200DD0000282A0001014000B2
:100D5C001200BE0000079800110798000A00FB0063
:100D6C0042062000110009000200D80001007800A2
:100D7C00A2002000110009000200D8006900400008
:100D8C00C200DD0000282A00010240001401BE0050
:100D9C000E0090009E0090008A1F780004FE070051
:100DAC004F05780000079800110798000A00FB0017
:100DBC00A2002000110009000200D80001007800F8
:100DCC00C200DD0000282A00010240001401BE0010
:100DDC000E0090009E009000F5FD07001F003700EC
:100DEC006A54E100180034000A00FB00A200200045
:100DFC00110009000200D80069004000C200DD00AB
:100E0C0000282A00010140001200BE0000079800D3
:100E1C00110798000A00FB00A20020001100090035
:100E2C000200D80001007800C200DD0000282A0072
:100E3C00010240001401BE000E0090009E009000C4
:100E4C00DBFD0700050037000A00FB00C200DD00D7
:100E5C0000282A00010140001200BE000080FA00A8
:040E6C00000006007C
:1005BC000000FA0002000700F40304000000000031
:1005CC00889FBE008A9FBE008C1F780030000700F9
:1005DC003700330003866C006450E10024003200C5
:1005EC006420E100270032006150E100220032005B
:1005FC006120E100210032008B854200EB07B10045
:10060C000134B800003AB8000804420089844A005A
:10061C00013AB8000030B8008880400009014A0057
:10062C0004003300000040008180480002014900B2
:10063C008B05E900C909DD0083017000010032005F
:10064C0013002000C814DE004814DD004709DE004A
:10065C001200B200C808DE000884700024000700F5
:10066C0001F0A1000CF0A70003E0A800190037006E
:10067C006120E1001B0032000881BE000280BE0038
:10068C00F7FF37006150E100FCFF3A00150037001E
:10069C000084BE003C0007000083BE000485BE0041
:1006AC000280BE0038000700844F75000000060071
:1006BC000280BE006450E100050036006420E100B9
:1006CC00020036000968A30001003A000880BE0051
:1006DC0002C0A8004F0678004F05BE004F04BE00B4
:1006EC0000000600F0FF2F00F1FF2700F9FF370094
:1006FC0081002000618055000B003D000B002000A4
:10070C0061FE2F000100E1001D00340082817100A8
:10071C00610164008904D1000884D3000000E80062
:10072C00FAFF3A00710020006100640003007000C1
:10073C00020060000900320061044400E0844C00B7
:10074C000988A500050032008B05E8006808E10067
:10075C0002003A008904D1000884D300F20F200073
:10076C000258E10005003D00C75DDD00F907B2004D
:10077C008980750008008800000006000BF827002F
:10078C001B00880000000500C70ADE00F107B2005C
:10079C00F50FB20008003200E1CF42000200320037
:1007AC0002E0A80024000500810F70000100320057
:1007BC000408050044000500810F700002003A0097
:1007CC00140005008502E9000000400081C04800CB
:1007DC00FCFF3B0002E0A800240005000080FA00AA
:0407EC000000060003
:100E70000400FA00E0C6B3000054E100310039007C
:100E80000A80FB0042062000110009000200D80081
:100E900072004000C200DD00C0242A0001014000B1
:100EA0001200BE008A1F78000200200003F0230019
:100EB000C2FD07004F057800000798001107980051
:100EC0000A80FB0042062000110009000200D80041
:100ED00001007800A2002000110009000200D800E3
:100EE00069004000C200DD00C0242A000102400069
:100EF0001401BE000E0090009E0090008A1F780032
:100F0000AEFD07004F057800000798001107980014
:100F10000A80FB00A2002000110009000200D80096
:100F200001007800C200DD00C0242A000102400058
:100F30001401BE000E0090009E0090009FFD07006F
:100F4000270037006A54E1001D0036000A80FB00CC
:100F5000A2002000110009000200D8006900400032
:100F6000C200DD00C0242A00010140001200BE00C2
:100F70008A1F78000200200003F023008FFD070085
:100F80004F05780000079800110798000A80FB00C1
:100F9000A2002000110009000200D8000100780022
:100FA000C200DD00C0242A00010240001401BE007E
:100FB0000E0090009E00900080FD070008003700A2
:100FC0000A80FB00C200DD00C0242A0001014000AD
:100FD0001200BE000200200003F0230077FD07008E
:080FE0000080FA000000060089
:100FE8000000FA001400200039FD07000080FA0014
:040FF80000000600EF
:1004D8000000FA0002000700DA0204000000000031
:1004E800841F7800140007004F00780011003300C3
:1004F800F0FF2F00838F6C0006003B0004056500A9
:100508000A00A7000800370009F0A6001000200024
:1005180008003700820F5400838F5C000300390005
:100528001000200001003E000000200009F0A70094
:100538000000EA00000006000084BE000600070074
:100548000083BE000485BE000280BE0002000700D2
:10055800844F750000000600C70ADE00F107B200EC
:10056800F50FB20008003200E1CF4200020032006D
:1005780002E0A80024000500810F7000010032008D
:100588000408050044000500810F700002003A00CD
:10059800140005008502E9000000400081C0480001
:1005A800FCFF3B0002E0A800240005000080FA00E0
:0405B8000000060039
:101268000000FA00F4FF2F0099FC07000080FA0044
:04127800000006006C
:100FFC000000FA00020007003009040000000000A5
:10100C00889FBE008A9FBE008C1F78003E000700A0
:10101C004500330003866C006450E1002E00320062
:10102C006420E100330032006150E1002F003200F7
:10103C006120E1003100320085855500EB07B000DE
:10104C0009002000080420000500370008044400B3
:10105C0089844C000A0031000603430087834B004F
:10106C000001530081815B00F8FF33000283BE0056
:10107C001000A8000804440089844C00F6FF3900D5
:10108C00C639DD008301730001003200130020001B
:10109C008904D1000884D3000998A300050032000C
:1010AC000800A7000600A8008904D1000884D3001A
:1010BC008B05E8008904D1000884D3000001EB0003
:1010CC000281D2002800070001F0A1000CF0A7005B
:1010DC0003E0A8001D0037006420E1001F0032006F
:1010EC000881BE000280BE00F7FF37006120E100DE
:1010FC001A0032006000B800F3FF37000000200037
:10110C0001F82700F0FF37000084BE003C00070008
:10111C000083BE000485BE000280BE0038000700BC
:10112C00844F7500000006000280BE006450E10090
:10113C00050036006420E100020036000968A300B7
:10114C0001003A000880BE0002C0A8004F067800DB
:10115C004F05BE004F04BE0000000600F0FF2F003C
:10116C00F1FF2700F9FF3700810020006180550056
:10117C000B003D000B00200061FE2F000100E10080
:10118C001D00340082817100610164008904D1006A
:10119C000884D3000000E800FAFF3A007100200038
:1011AC00610064000300700002006000090032005E
:1011BC0061044400E0844C000988A500050032005D
:1011CC008B05E8006808E10002003A008904D100B0
:1011DC000884D300F20F20000258E10005003D0006
:1011EC00C75DDD00F907B200898075000800880032
:1011FC00000006000BF827001B008800000005000B
:10120C00C70ADE00F107B200F50FB2000800320089
:10121C00E1CF42000200320002E0A80024000500E9
:10122C00810F700001003200040805004400050025
:10123C00810F700002003A00140005008502E900DD
:10124C000000400081C04800FCFF3B0002E0A80009
:0C125C00240005000080FA0000000600DD
:10095C000000FA0002000700160504000000000069
:10096C000081BE00190007000470A70003F0A1006D
:10097C0003F8A30013003A006509B100100032001F
:10098C00090035006928E10002003500010028004B
:10099C000000050000004000818048008502E9004D
:1009AC00FCFF3A0000000600F88F420005003500FD
:1009BC008100D1000080D3008502E800FCFF3A00E2
:1009CC00000006008000EB0000000500C70ADE00F6
:1009DC00F107B200F50FB20008003200E1CF42007F
:1009EC000200320002E0A80024000500810F700014
:1009FC00010032000408050044000500810F70005E
:100A0C0002003A00140005008502E90000004000D5
:100A1C0081C04800FCFF3B0002E0A8002400050058
:080A2C000080FA000000060042
:1007F0000000FA0002000700AA0404000000000044
:100800000400E20006003A000005EB000200E200EE
:100810000F003E000000E200270032000C0037000D
:10082000A10088000200E2000400350008003C003E
:100830000000E200200032000500370060001000D8
:10084000E080180002003B0001F02C001A00370085
:100850000084BE006011B8006B0920000982CF003F
:10086000020039000882CF000441B0006942520002
:100870000E00320008003B008281710061016400BB
:100880008904D1000884D3008B05E8000442E80005
:10089000F9FF3A00050037000804440089844C0041
:1008A0008B05E9000442E900FBFF3A000300070062
:1008B0000AF0A70003E0A800000006008100200065
:1008C000618055000B003D000B00200061FE2F00F1
:1008D0000100E1001D0034008281710061016400AB
:1008E0008904D1000884D3000000E800FAFF3A0030
:1008F00071002000610064000300700002006000CD
:100900000900320061044400E0844C000988A5001D
:10091000050032008B05E8006808E10002003A009B
:100920008904D1000884D300F20F20000258E100AE
:1009300005003D00C75DDD00F907B2008980750044
:1009400008008800000006000BF827001B00880044
:0C095000000005000080FA000000060016
:100BC8000000FA0007E0AA008BFD07000080FA0089
:040BD8000000060013
:100200000000FA000200070068020400000000007D
:10021000889FBE008A9FBE008C1F7800590007008F
:10022000600033006450E1004F0032006420E100C0
:100230005200320003826C0007003B000905D00029
:100240000306D000820F54000C065D000200390046
:100250000200320039008800C30088008582550002
:1002600004003D000003FD008103FD008502EA005B
:100270008B854200840F720002003B00600010007A
:10028000E08018006011B8000005EB007A28E1005A
:100290000A00390006008800C75DDD00F707B200DC
:1002A000878075002D003700828171002A00880048
:1002B000610560008180D1000080D3008502E900E3
:1002C000F9FF3B00060440008784480002003B0021
:1002D00060041400E0841C000988A30007003200B9
:1002E0008A81710082817100610164008904D100FA
:1002F0000884D3008B05E800170037000978A300B5
:1003000013003A001600E200130034008B05E900E8
:100310000804440089844C000A4474000978A3004E
:100320000D003A001600E200070034008B05E900DA
:100330000804440089844C0001003A000B002000AE
:100340000978A300F7FF32000001EB00020037003C
:10035000828171002A008800220007000CF0A700AB
:1003600003E0A800180037006420E10002003A0012
:10037000838F6C00180033000881BE000280BE002D
:10038000110037000084BE003C0007000083BE005F
:100390000485BE000280BE0038000700844F75004F
:1003A000000006000280BE006450E1000500360037
:1003B0006420E100020036000968A30001003A0051
:1003C0000880BE0002C0A8004F0678004F05BE009E
:1003D0004F04BE0000000600F0FF2F00F1FF2700D1
:1003E000F9FF370081002000618055000B003D00BF
:1003F0000B00200061FE2F000100E1001D00340011
:1004000082817100610164008904D1000884D300F5
:100410000000E800FAFF3A0071002000610064006B
:100420000300700002006000090032006104440013
:10043000E0844C000988A500050032008B05E80027
:100440006808E10002003A008904D1000884D30062
:10045000F20F20000258E10005003D00C75DDD00FD
:10046000F907B200898075000800880000000600C6
:100470000BF827001B00880000000500C70ADE00FB
:10048000F107B200F50FB20008003200E1CF4200E0
:100490000200320002E0A80024000500810F700075
:1004A000010032000408050044000500810F7000BF
:1004B00002003A00140005008502E9000000400037
:1004C00081C04800FCFF3B0002E0A80024000500BA
:0804D0000080FA0000000600A4
:100AD8000000FA0002000700E00504000000000022
:100AE8000081BE001F0007000470A70003F0A100EA
:100AF8006509B100160032000D0035006828E100D4
:100B080006003500F0FF2F00F1FF27000600E20085
:100B180013003B0001002800000005000000400011
:100B2800818048008502E900FCFF3A000800370090
:100B3800F88F420002003C008000EB000000050036
:100B48008100D1000080D3008502E800FCFF3A0054
:100B58000600E20002003B0060001000E080180080
:100B680000000600C70ADE00F107B200F50FB20068
:100B780008003200E1CF42000200320002E0A80083
:100B880024000500810F70000100320004080500F0
:100B980044000500810F700002003A0014000500AF
:100BA8008502E9000000400081C04800FCFF3B00CE
:100BB80002E0A800240005000080FA0000000600FA
:000BC8002D
:1036A8000000FA000220EF001A4078006004E100F0
:1036B8000A0032008A1F78000085FB0083FF07009C
:1036C8004F05780061C04000804078000080FB0012
:1036D8000000450010407800F4FF37000080FA0031
:0436E80000000600D8
:1034D4000000FA000F02AF0001003700FDFF3700C3
:0C34E4008A1088000080FA00000006003A
:104230003400F8003600F800801F780020002000CD
:104240000C000900B01F78008A1F78008B1F7800CF
:104250008C1F78008520A90027FD070020842000FE
:104260001000E00014003A00204280006000E100ED
:1042700011003400808120001000E0000E003200A8
:10428000B0408000A04088004042800090408800FC
:104290004B428000BA40800024FE0700BC8720000B
:1042A000EB0020001A00200019FD07000020EF009D
:1042B000C04088000D003700208420001000E0007E
:1042C0000A003200608020001000E00007003A0081
:1042D000FCFD070010002000304088006C862000A4
:1042E000FB0020001A00200009FD07004F0678009F
:1042F000CF0578004F057800A00120000C000900D0
:104300004F1078004F0078003600F9003400F900B3
:044310000040060063
:1036F8000000FA0000000000000000001282BF0075
:083708000080FA000000060039
:103FF4003400F8003600F800801F7800200020000C
:104004000C000900B01F78008460A9001100200092
:104014006081200010884000B1408000803E200074
:104024000008E10005003A000020EF00B0408800DD
:10403400110020008084200010884000A00120008E
:104044000C0009004F1078004F0078003600F9008A
:084054003400F90000400600F1
:103EF0003400F8003600F800801F78002000200011
:103F00000C000900B01F78008A1F78008B1F780012
:103F10008C1F780028012000F7D42C000E20ED0023
:103F2000FEFF3A001020ED00FCFF3A000000000008
:103F30008400A900608420001000E0001C00320012
:103F4000208420001000E0000B003A001000200048
:103F500010428800CC8820001B0020002A0020008E
:103F6000EBFD0700FC8720001B0020002A0020003A
:103F7000E7FD07000D003700208420001000E0005E
:103F80000A0032000020EF00104288005C8B200005
:103F90001B0020002A002000DDFD07004C8A2000C5
:103FA0001B0020002A002000D9FD07000700370071
:103FB000608420001000E00004003A0040428000CD
:103FC000304688000020EF00004088004F0678004F
:103FD000CF0578004F057800A00120000C000900F3
:103FE0004F1078004F0078003600F9003400F900D7
:043FF0000040060087
:0443140000000000A5
:10431800456E000064750000726100006E63000065
:04432800650000002C
:04432C00000000008D
:044330000000000089
:044334000000000085
:044338000000000081
:10433C0041630000636500006C6500007261000061
:10434C00746900006F6E000000570000686900007F
:10435C00746500002042000075740000746F00004A
:04436C006E000000DF
:1043700054650000737400002044000050390000B0
:0C43800020320000303100003700000047
:04438C00000000002D
:04439000FFFF00002B
:044394000100000024
:044398000000000021
:10439C00456E000064750000726100006E630000E1
:0443AC0065000000A8
:1043B00041630000636500006C65000072610000ED
:1043C000746900006F6E0000000000000000000033
:0443D00000000000E9
:1043D4004F4B00000022000000000000000000001D
:1043E40000000000000000000000000000000000C9
:1043F4000000000000270000004900004E540000A7
:104404000041000063630000656C000065720000F9
:0C44140061740000696F00006E00000081
:10442000202000002020000020200000202000008C
:10443000202000002020000020200000202000007C
:08444000002000002000000034
:08444800454E00004400000095
:10445000456E000064750000726100006E6300002C
:0444600065000000F3
:10446400286E0000756C00006C290000002000001C
:104474002020000020200000202000002020000038
:104484002020000020200000202000002000000048
:044494000000000024
:1044980000000000803F0000CDCC0000CC3D0000B3
:1044A8000AD70000233C00006F120000833A000086
:1044B80017B70000D1380000ACC50000273700004E
:1044C800BD3700008635000095BF0000D6330000D8
:1044D80077CC00002B3200005F70000089300000AC
:1044E800FFE60000DB2E000008E500003C1E00008F
:0844F80060420000A20D00006B
:1045000000000000803F000000000000204100008B
:1045100000000000C8420000000000007A440000D3
:10452000004000001C46000000500000C34700008F
:10453000002400007449000080960000184B000021
:1045400020BC0000BE4C0000286B00006E4E000036
:10455000F902000015500000EC780000AD6000008A
:08456000CAF2000049710000DD
:10456800010000000000000008000000000000003A
:1045780040000000000000000002000000000000F1
:104588000010000000000000008000000000000093
:1045980000000000040000000000000020000000EF
:1045A80000000000000100000000000000080000FA
:1045B80000000000004000000000000000000000B3
:1045C80001000000000000000A00000000000000D8
:1045D8006400000000000000E80300000000000084
:1045E8001027000000000000A08600000100000065
:1045F800404200000F000000809600009800000074
:1046080000E10000F505000000CA00009A3B000028
:104618000100000000000000100000000000000081
:104628000001000000000000001000000000000071
:104638000000000001000000000000001000000061
:104648000000000000010000000000000010000051
:1046580030310000323300003435000036370000B6
:10466800383900004142000043440000454600003C
:1046780000300000313200003334000035360000CD
:10468800373800003961000062630000646500008B
:0446980066000000B8
:10469C002573000025730000257300000A0000003C
:0C46AC0030300000256400000000000019
:0446B80001000000FD
:1046BC004F4B00000030000025640000003000006B
:0C46CC00256400000025000064000000D0
:0C46D800256400000025000064000000C4
:0846E400256400000000000045
:0200000401F009
:1C000000058700003F000000B38700000F3100000F3300000700000003C0000093
:00000001FF
